:020000040800F2
:1000000000C000203D0200088D020008E143000806
:10001000E7430008ED430008F34300080000000038
:10002000000000000000000000000000CD5C00089F
:100030008D02000800000000675D0008775D000881
:100040008D0200088D0200088D0200088D02000854
:100050008D0200088D0200088D0200088D02000844
:100060008D0200088D0200088D0200087916000834
:1000700085160008911600089D160008A9160008AC
:10008000B5160008C11600088D02000859070008BF
:100090005D0600088D0200085D0700088D0200085B
:1000A0008D0200088D0200088D0200088D020008F4
:1000B0008D02000800000000000000008D02000812
:1000C0008D0200080000000000000000B1140008CC
:1000D000000000008D0200088D02000800000000F2
:1000E0008D0200088D0200080000000000000000E2
:1000F0000000000000000000000000000000000000
:10010000000000000000000000000000BD14000816
:1001100000000000000000008D0200088D020008B1
:10012000CD160008D9160008E5160008F1160008DB
:10013000FD160008000000000000000000000000A4
:100140008D0200088D0200088D0200088D02000853
:1001500009170008151700088D0200088D02000815
:100160008D0200088D0200088D02000800000000CA
:100170008D0200088D020008000000000000000051
:100180008D0200088D0200088D02000810B5054C94
:10019000237833B9044B13B10448AFF30080012333
:1001A000237010BD300200200000000060A4000891
:1001B00008B5034B1BB103490348AFF3008008BDEA
:1001C000000000003402002060A40008A3F5803A7B
:1001D000704700BF154B002B08BF114B9D46FFF722
:1001E000F5FF00218B460F461148124A121A08F0FB
:1001F00023F80C4B002B00D098470B4B002B00D062
:1002000098470020002104000D000B4805F0B4FAC7
:1002100008F076F82000290007F004FA05F0ACFC9D
:1002200000000800000000005575000800C0002014
:10023000300200205025002049830008DFF834D028
:1002400002F038FF002103E00B4B5B5843500431B0
:100250000A480B4B42189A42F6D30A4A02E000239E
:1002600042F8043B084B9A42F9D3FFF7B3FF7047BB
:10027000FEE7000000C000206CA400080000002081
:10028000300200203002002050250020FEE730B56B
:1002900097B014220021684607F0CEFF40220021CB
:1002A00006A807F0C9FF0425012405A805950794B1
:1002B00001F0C4FD10B1002017B030BD102305932C
:1002C000B0230D930223CDE90B40CDE90F34062076
:1002D0002823CDE91103072305A8CDE9133515958A
:1002E00001F0ACFD04460028E5D102F04BFB0F22E3
:1002F000032329466846CDE90023CDE9024404944E
:1003000002F046F8B0FA80F04009D5E708B5FFF7EB
:10031000BEFF10B9014805F0D5F808BD28900008C7
:10032000A1F1F0039BB20F2BF7B504460D461AD985
:100330003949284603F0D0FD37490746284603F0DF
:10034000E1FD276001460646284600F003FD002136
:10035000284600F08FFD2368013310D12F49304823
:10036000352204F071FE2F49284603F0B5FD2D49D2
:100370000746284603F0C6FD27600646EBE7731CD8
:1003800003D1264928483622EBE700234FF4802288
:10039000C4E901230422626101226365C4E90923DF
:1003A000C4E90333238384F82030E36284F83030D7
:1003B00084F8383003F18043E26103F504334FF4ED
:1003C0008052C6F3843684F866606263DA6CA4F8FF
:1003D000645042F40052DA64DA6C02F40052019282
:1003E000019AD3F8882042F04052C3F88820204672
:1003F00001F0ACF910B10D4805F064F87F212046FA
:1004000001F0F2FA30B97F21204603B0BDE8F04098
:1004100001F0A2BA03B0F0BDB08F000889900008C7
:100420009B900008808F0008C5900008DE900008AF
:1004300073B500F09FFE041E33DB1B4E56F82400FC
:1004400000282ED08423194D6343EB58DA69110636
:1004500009D5DA69120606D51B681B0603D5144BAD
:1004600001211B68984784236343EB58DA6991069E
:100470000BD5DA69920608D51B68980605D50C4B92
:1004800056F824001B680021984784235C432B59AD
:10049000DA69110705D5DA69120742BF9B8C9BB256
:1004A000019302B070BD00BFDC03002050020020A9
:1004B0004C0200200148FFF7BBBF00BF0080004096
:1004C0000148FFF7B5BF00BF004400400148FFF7F7
:1004D000AFBF00BF00380140044A4109012300F0CA
:1004E0001F00834042F82130704700BF00E100E068
:1004F0004309064900F01F0020330122824041F8E1
:100500002320BFF34F8FBFF36F8F704700E100E0F0
:10051000034B19604168034B43F82120704700BF2B
:100520004C020020DC030020D0E9000330B4204C52
:10053000A04222D004F53844A04218D0A4F5744457
:10054000A04217D00024204684256B43194DEB5858
:10055000CAB11A68A1B942F020021A60164B00F124
:1005600010029B6843F8224030BCFFF7B5BF134C24
:100570002520E9E7124C2620E6E7124C4620E3E767
:1005800042F08002E9E71A6849B922F020021A60B5
:100590001B6813F0800F09D130BCFFF7A9BF22F010
:1005A00080021A601B6813F0200FF4E730BC70471C
:1005B000008000405002002000ED00E0CD04000863
:1005C000C1040008B5040008F8B54568184F842335
:1005D00003FB057306469A68B2F5805F15D11B6967
:1005E000002B40F2FF1418BFFF24842303FB057384
:1005F000A3F85C40304600F0F5FC0028FAD08423D4
:100600005D437B59988C2040F8BD2AB91B69002BAB
:100610000CBFFF247F24E8E7B2F1805F05D11B699E
:10062000002B0CBF7F243F24DFE70024DDE700BF61
:100630005002002070B5466805460C46284600F07A
:10064000E1FC0028FAD084235E43034B9B59C4F39A
:1006500008041C8570BD00BF50020020384B5A6949
:10066000D0072DE9F0412BD59E6836489968364D64
:100670009A68364C06EA0007B04308BF012001EA39
:10068000050108BF98602E4BA94208BF4FF4807047
:1006900002EA040208BF9860A24204BF4FF480300F
:1006A0009860284B9F4205D0274B994202D0274B98
:1006B0009A4205D1264B274A1B68106801219847AA
:1006C0001F4BD9685A6989070BD0970709D55A6912
:1006D00022F002025A611E4B1E4A1B68106800215C
:1006E0009847174B99695A695B698E0709D5950533
:1006F00007D51C0405D5164B164A1B681068052142
:1007000098470F4CA16962696369480702D463691D
:10071000BDE8F0815105FAD51A040AD463691B04B7
:10072000F6D50B4B0B4A1B681068BDE8F04102215F
:100730001847084A064B10681B6807219847EDE7E1
:1007400000640040030000040003000800000310E0
:10075000E8030020EC030020FFF780BFFFF77EBF17
:1007600030B591FAA1F391FAA1F1B3FA83F30468D9
:100770005B000325B1FA81F105FA03F3490024EA8D
:1007800003038A401A43026030BD00001FB51D4BB1
:10079000072834D8DFE800F004121D333333332840
:1007A000DA6C42F00102DA64DB6C03F001030093BF
:1007B000009B4FF0904005B05DF804FBDA6C1248E6
:1007C00042F00202DA64DB6C03F002030193019B46
:1007D000F1E7DA6C0D4842F00402DA64DB6C03F0F6
:1007E00004030293029BE6E7DA6C094842F08002B8
:1007F000DA64DB6C03F080030393039BDBE70548BB
:1008000004F060FE001002400004004800080048A8
:10081000001C0048F5900008431C10B5044604D1A4
:1008200006490748772204F00FFC4FF4707100F07E
:1008300091FA04F00F040120A04010BD549100086B
:100840005F9100084B1C70B504460E46018218D01B
:10085000C1F30310FFF79AFF05463046FFF7DCFFB0
:10086000238A084A656103F00F03206052F82330A1
:10087000A36105F11003636005F118032835A36037
:10088000E56070BDFCA00008B0F9100000F0F2BAFD
:100890000A46D0E905010AB9FFF762BF0122FBE76A
:1008A00008B500F027FE002008BD000038B504F0B0
:1008B0009FFC4FF08043124912485C6A02680B8823
:1008C0009B1A2344B3F5803F17D34FF47A75B3FBDB
:1008D000F5F205FB123305E00132A3F57A73B3F5A7
:1008E0007A7FF9D20460084C9BB20B8023681344D2
:1008F000236004F093FC206838BD0022EFE700BFBE
:10090000F0030020F8030020F403002000487047A3
:10091000F4A00008024BD869DA698242FBD1704723
:10092000007C004008B504F063FC074B01221A70FC
:10093000064B00221A70064B0222C3F808219A6067
:10094000BDE8084004F06ABC0C0400200B04002041
:1009500000E100E010B504F04BFC134B1A7842B9EB
:10096000124A126811680907FCD50821516001225A
:100970001A700F4C23781BB104F09EFE00232370E5
:100980000C4A002313700C4A13700C4B0222C3F85C
:100990008820BFF34F8FBFF36F8FBDE81040C3F8BF
:1009A000882104F03BBC00BF080400201004002094
:1009B000000400200B0400200C04002000E100E0F3
:1009C00070B5404B1C68A8B024B128B0BDE8704099
:1009D000FFF7C0BF5022012521460DEB02001D602C
:1009E00007F02AFC4022214603A807F025FC042337
:1009F00002934FF40073139302A84FF4402304951D
:100A0000209301F01BFA10B12F4804F05BFD13A8EE
:100A100001F074FE08B12D48F7E72D4B2D4C9A6D6F
:100A200042F000429A659A6D02F000420192019AEA
:100A30009A6B42F000429A639A6B22F000429A63EA
:100A4000A3F5CA33C4E90100C4E90300C4E90800FE
:100A5000C4E90A00236084F836004FF48023E06183
:100A600020634FF6FF762046C4E9056301F062F883
:100A7000054608B11848C8E7184B194A9B68C3F8DF
:100A80004421184A136A43F00103136223689A68E9
:100A900042F001029A609A6842F008029A60314678
:100AA000204601F0A3F8236808225A605D611A68A5
:100AB0001207FCD508225A600B4B01221A7028B08D
:100AC00070BD00BFFC030020729100088B910008EC
:100AD0000010024010040020AC91000800ED00E07E
:100AE000DD0B0008000401400804002008B504F0F4
:100AF0007FFB064B1B6801225A60054B0222C3F89C
:100B00008821BDE8084004F089BB00BF1004002024
:100B100000E100E070B5044604F06AFBFFF7FAFE5E
:100B2000264B05461C60264A02219160254E3278EC
:100B3000F2B9611F4FF6F572914223490FD94FF672
:100B4000FA7290420BD906340122A4B20A701C60DA
:100B50001E4B01221A70BDE8704004F05FBB0022FA
:100B60000A701B68AB421A4B28BF01221A70EFE7CC
:100B7000FFF7BCFF00235A1992B2A24208BF053406
:100B800003F1010308BFA4B2052BF4D1114BAC4211
:100B90001B6811D24FF6FA7295420DD84FF0FF3212
:100BA0005A6100230C4C33702378002BD3D104F00E
:100BB0006DFD01232370CEE75C61F2E704040020A1
:100BC00000E100E008040020090400200B040020DC
:100BD0000A040020100400200004002070B504F076
:100BE00007FB2C4B2C4C1A7832B12268002119706B
:100BF0000123536003F042F923681A68D50706D52C
:100C00009A68D00703D501225A6003F037F92368A8
:100C10001A68110724D59A68120721D508225A604C
:100C20001E4B1F4C01221A7023781BB104F044FDA7
:100C3000002323701B4C237893B11B4D1B492B7849
:100C400003F0FF06B3B1FFF765FE0B68063080B214
:100C5000984209D3FFF766FE00232B700023237010
:100C6000BDE8704004F0DABA0868063880B2FFF7D1
:100C700051FFF1E70E4D2B7843B1FFF74BFE0B68A8
:100C8000984203D3FFF74EFE2E70E7E70868FFF7A0
:100C900041FFE3E70C0400201004002008040020BA
:100CA000000400200B04002009040020040400209C
:100CB0000A040020FFF74EBE7047704710B50E4C77
:100CC000FFF7FBFF02F01CFA00F02BFDD4F8903088
:100CD0009B0707D400F0B2FFD4F8903023F018033C
:100CE000C4F89030FFF712FB02F00AFAFFF7E4FFB6
:100CF000024B01221A6010BD00100240480400207F
:100D000030B591FAA1F391FAA1F1B3FA83F38468B3
:100D10005B000325B1FA81F105FA03F3490024EAE7
:100D200003038A401A43826030BD30B591FAA1F3C3
:100D300091FAA1F1B3FA83F3C4685B000325B1FA19
:100D400081F105FA03F3490024EA03038A401A43B8
:100D5000C26030BDB0F1FF3F2DE9F84380460E463A
:100D60007FD000F00F02404BC0F3031053F8225025
:100D7000C1F3831901F00707FFF708FDB9F10F0F61
:100D80000CBF03224A4629460446FFF7B9FF032F4A
:100D90005ED8DFE807F062642C02032395FAA5F21F
:100DA000B2FA82F221685200032000FA02F221EA2C
:100DB000020195FAA5F2B2FA82F252009340013F85
:100DC0000B43012F236005D8636832074CBF2B43C8
:100DD000AB436360C6F30112012A02D0022A18BF96
:100DE000002229462046BDE8F843FFF79EBF18F0D1
:100DF000080FC6F3832217D02B0A93FAA3F1B1FA96
:100E000081F1406A93FAA3F389004FF00F0CB3FA13
:100E100083F30CFA01F19B0020EA010102FA03F3CB
:100E20000B4363620223B9E795FAA5F3B3FA83F3A0
:100E3000016A9B000F2000FA03F321EA030195FAEF
:100E4000A5F3B3FA83F39B009A400A432262E9E7D1
:100E500006490748D52204F0F7F800239EE701234E
:100E60009CE7BDE8F88300BFFCA0000800920008E2
:100E7000D49B000838B5431C0D4634D000F00F0257
:100E8000194BC0F3031053F82240FFF77FFC94FA8C
:100E9000A4F2B2FA82F252000168032393400B409D
:100EA00094FAA4F26AB1B2FA82F25200D340013B42
:100EB000012B06D8EB1E022B436894BF2343A343A8
:100EC0004360013D042D0CD8DFE805F00309030B56
:100ED000090001222146BDE83840FFF726BF022263
:100EE000F8E70022F6E738BDFCA000080FB407B50C
:100EF000064B04AA1B6852F8041BD868019203F041
:100F0000CCFE03B05DF804EB04B07047CC010020C8
:100F100003682F4A934210B5044636D12D4B1A6C04
:100F200042F480421A641A6C22F480421A641A6EE7
:100F300022F480421A66B4F9180040F2C331FFF778
:100F400009FFB4F91A0040F2C331FFF703FF236A27
:100F500023F40073B3F5807F05D1B4F9240040F287
:100F6000C331FFF7F7FE236A23F48073B3F5007FE4
:100F700005D1B4F9260040F2C331FFF7EBFE6268F9
:100F8000154B002143F8221010BD144A93420DD195
:100F9000104B9A6B42F400329A639A6B22F400323F
:100FA0009A639A6D22F400329A65C4E70C4A934220
:100FB000C1D1084BDA6B42F00102DA63DA6B22F03E
:100FC0000102DA63DA6D22F00102DA65B3E700BFED
:100FD0000038014000100240DC03002000440040C3
:100FE00000800040436884225343054AD358DA699D
:100FF000120744BF08221A62D869C0F34010704734
:1010000050020020436884225343034AD358D869CE
:10101000C0F3C010704700BF5002002070B5466892
:10102000214A05688168842373439C18D550616008
:10103000C368A3600369E36043692361036AA36132
:101040000023A4F85230A4F85030A4F85A30A4F881
:101050005830C4E90833E361B0F91A3001331BD0CA
:10106000B0F91830581C0CBF04230C23842000FB5B
:10107000062253610D4B9D4209D142F6AA239942A3
:1010800020460BD801F0D1FF204601F0F0FF2046AA
:10109000BDE8704001F09BBF0823E7E701F0D6FFF1
:1010A000204601F0F5FFF2E75002002000800040EA
:1010B00070B502682B4B9A42A6B004460D4681607B
:1010C00022D15022002112A807F0B6F82023119354
:1010D00042F6AA239D4222DD002311A81B9301F0B2
:1010E0000DFB2046FFF79AFF002839D04FF48063AC
:1010F00011A81B9301F002FB2046FFF78FFF78B386
:1011000019482946FFF7F2FE2046FFF787FF38B35C
:101110001648294626B0BDE87040FFF7E7BE144EDA
:10112000D6F8901011F002010BD1402201A807F06F
:1011300083F8042300936846012302930A9300F086
:101140007DFED6F890309B07C6D54FF4406311A8BA
:101150001B9301F0D3FA2046FFF760FF0028BBD1B4
:1011600026B070BD0080004009920008549200082B
:1011700000100240094B98420BD0A3F574439842EB
:1011800009D003F5705398420CBF02204FF0FF3096
:101190007047002070470120704700BF00380140B1
:1011A0002DE9FF470E4604464B493046154602F0EE
:1011B00093FE4A498246284602F08EFE014650467A
:1011C00002F066FE44490746304602F09BFE434962
:1011D0008146284602F096FE022E80460AD00F2D48
:1011E00008D03D49022002F077FE50450CD13C4822
:1011F00004F068F94FF0010A791C276007D13949DA
:101200003948412203F020FF4FF0000AF4E7374B42
:101210009F4214D103F558431A6E42F480421A6675
:101220001B6E03F480430193019B3846FFF7A2FF36
:101230006060013021D12B492D48A022E2E72D4BDF
:101240009F420BD103F5E6339A6D42F400329A6562
:101250009B6D03F400330293029BE6E7264B9F420B
:10126000E3D103F5C833DA6D42F00102DA65DB6DD4
:1012700003F001030393039BD7E749463046FFF78A
:1012800069FD01213046FFF7F5FD41462846FFF78D
:1012900061FD28460121FFF7EDFD00234FF4E13207
:1012A000C4E90223C4E9043323622683658320460C
:1012B000FFF7B4FEBAF1000F0AD0104B104801221C
:1012C0001A6021464C2204B0BDE8F04707F053B83D
:1012D00004B0BDE8F08700BF508F0008208F0008E1
:1012E0007E920008F1920008FE920008003801404A
:1012F0001A93000800440040008000409804002039
:101300004C0400200F4B186810F0010018BFD8697A
:101310000D4B1A681CBFC0F3801080F00100D1078C
:1013200041BFDB69C3F3801383F001031843074B0C
:101330001A68D20741BFDB69C3F3801383F001034E
:1013400018437047003801400044004000800040CE
:101350004FF08042516A536A5B1A8342FBD3704755
:1013600010B5002486B01422214601A8009406F08E
:1013700063FF694601A801F01DF90F23009901934D
:1013800001A8CDE902440594049401F001F810B1DC
:10139000024804F097F806B010BD00BF2C93000877
:1013A00000B593B00021442201A806F045FF104B80
:1013B0009A6D42F080529A659B6D03F080530093C2
:1013C00001A8009B01F09CF8102301930121002348
:1013D000B02201A8CDE9071309920B9300F02EFD6E
:1013E00010B1044804F06EF813B05DF804FB00BFC0
:1013F000001002405493000808B503F0F9FE074BB3
:10140000186810F480404FF0010118BF4FF480407D
:1014100000F01CFCBDE8084003F000BF0070004075
:1014200073B5FFF76FFF002839D11E4C03F0E0FEC3
:1014300000F0F6F81C4AA56D166815F0805506F404
:10144000804608D1A36D43F08053A365A36D03F0DC
:1014500080530193019B0EB100F028FC012000F0A5
:1014600045FC0EB100F01AFC1DB9A36D23F08053AA
:10147000A3650E4C00232360FFF792FFFFF770FF78
:10148000FEF744FF4FF4FA70FFF762FF00F0DEF85A
:101490000123236002B0BDE8704003F0BFBE02B07C
:1014A00070BD00BF001002400070004048040020E2
:1014B000014B186801F070BAA0040020014B1868B5
:1014C00001F06ABA9C040020074A4FF08043136081
:1014D0001A69910707D5DA68920704D56FF00202FE
:1014E0001A6102F021BF7047B00400200048704725
:1014F0003CA1000830B589B001A903A801F05AF851
:1015000000F0DAFF204B01909A6D204C42F001026E
:101510009A659A6D02F001020292029A9A6B42F069
:1015200001029A639A6B22F001029A63069A4FF0C5
:10153000804323604FF0FF33E360154BFAB9B0FBF3
:10154000F3F3581E0025606010482561C4E9055575
:10155000A56001F0E7FA0F4B0F4A9B68C3F8B02073
:101560000E4B4FF080521A600848294601F018FBD4
:101570002268D36823F00203D36009B030BD400075
:10158000B0FBF3F00138DDE700100240B0040020AA
:1015900040420F0000ED00E0C914000800E100E047
:1015A00004480268D36823F00203D360002101F0ED
:1015B000F7BA00BFB00400204FF08043586A70476C
:1015C000054B1B686FF0020258631A61DA6842F03B
:1015D0000202DA60704700BFB0040020064B1B68AF
:1015E0006FF002021A615A6942F002025A61DA6827
:1015F00042F00202DA607047B0040020034B1A6820
:10160000D36823F00203D360704700BFB00400200A
:10161000024B1B686FF002021A617047B004002091
:10162000064B074A1B68596A11605A6B054B1A60D2
:101630004FF08043DA68044B1A607047B004002012
:10164000AC040020A8040020A4040020064B074A94
:101650001B6812685A62064A12685A63054B1A6878
:101660004FF08043DA607047B0040020AC040020E3
:10167000A8040020A4040020014B186800F0F6B96B
:10168000FC040020014B586800F0F0B9FC04002075
:10169000014B986800F0EAB9FC040020014BD868BF
:1016A00000F0E4B9FC040020014B186900F0DEB939
:1016B000FC040020014B586900F0D8B9FC0400205C
:1016C000014B986900F0D2B9FC040020014BD869A5
:1016D00000F0CCB9FC040020014B186A00F0C6B938
:1016E000FC040020014B586A00F0C0B9FC04002043
:1016F000014B986A00F0BAB9FC040020014BD86A8B
:1017000000F0B4B9FC040020014B186B00F0AEB936
:10171000FC040020014B586B00F0A8B9FC04002029
:10172000704710B5032000F06BF90F20FFF7B8F8F1
:10173000044618B9FFF7F4FF204610BD0124FBE76B
:101740008068C0F3800070477047000037B5002301
:1017500001930446002800F0BE80456D25B9FFF7CF
:10176000F3FFA56584F8505023689A68910041BF43
:101770009A6822F0204222F03F029A609A68D200D2
:1017800040F188809A68D50000F19B80626D42F03C
:1017900010026265A26D42F00102A26501211846A5
:1017A000FFF7CEFF626D02F01002024340F08F801F
:1017B000626D22F4817242F0020262659A68D0077B
:1017C0000AD4464A9268D20706D4454865688268BA
:1017D00022F47C122A438260E568626B94F8200050
:1017E0002A43A5682A43657E012842EA453242EA37
:1017F000004202BF606A00F1FF3042EA4042A06A44
:1018000020B1E56A00F4707028430243DD68354872
:1018100028401043D8601846FFF792FF9A6802F0FC
:10182000080202431ED1D86894F83020257E520069
:1018300020F4804042EA853220F002000243DA6060
:1018400094F83820012A3ED1D4E90F2518692A439B
:101850006FF38A000243606C0243A06C024342F0C3
:1018600001021A612269012A05BF186BE2691A6B2D
:1018700002F1FF3206BF20F00F00024322F00F02F8
:101880001A63636D23F0030343F0010363650846A5
:1018900003B030BD9A68144922F0104222F03F0292
:1018A00042F080529A60114A1268B2FBF1F20132A2
:1018B00052000192019A002A3FF464AF019A013A62
:1018C000F7E700216BE71A6922F00102C9E7636DAF
:1018D00043F0100363650121D9E700BF0000045005
:1018E0000003045007C0F0FF400D03000800002073
:1018F000026838B5936891680446C80701D400208F
:1019000038BD9907FBD4936803F00D03012B19D15F
:10191000936823F0004323F03F0343F002039360F6
:1019200003231360FEF7C2FF054623689B68DB07AD
:10193000E5D5FEF7BBFF401B0228F6D923689B685C
:10194000DA07F2D5636D43F010036365A36D43F0CE
:101950000103A3650120D3E737B50023019390F875
:101960005030012B04460D463CD0012380F8503006
:10197000FFF7BEFF636D90BB23F4885323F002038F
:10198000226843F002036365936823F0404323F029
:101990003F0305F080452B4343F000439360936879
:1019A000002B12DA019B01330193019BB3F5912FB8
:1019B000F5D3636D23F0120343F010036365002336
:1019C00084F85030012003B030BD636D23F0030371
:1019D00043F001036365002384F85030F3E743F0DC
:1019E0001003F7E70220EEE70368D3F8B4000840DD
:1019F000090B01F0100100F07F10C8407047000093
:101A00000749CA6822F4E0620302120403F4E063A7
:101A1000120C134343F0BF6343F40033CB607047B1
:101A200000ED00E010B590F82520022A03D0042232
:101A3000C263012010BD0268836B116821F00E01A2
:101A40001160116821F001011160D0E910420121FB
:101A500002F01C0201FA02F26260002280F82510F6
:101A600080F8242003B198470020E3E7016C426C22
:101A7000036870B402F01C020E681D6804249440D0
:101A800034420ED015F0040F0BD01A6892065EBFD8
:101A90001A6822F004021A60036B4C6073B370BCC6
:101AA000184702249440344212D015F0020F0FD090
:101AB0001A68950606D41A6822F00A021A600123F1
:101AC00080F8253000234C6080F82430C36AE5E7B5
:101AD00008249440344211D02C070FD51C6824F000
:101AE0000E041C60012303FA02F24A60C36380F80B
:101AF0002530002380F82430436BCFE770BC70475B
:101B00000A4B44F620621B68B3FBF2F34FF47A727F
:101B100010B55343046800202268013B08BF03202E
:101B200031EA020201D0002BF6D110BD08000020DE
:101B300070470000F8B50446002850D090F83630C1
:101B400003F0FF021BB980F83520FFF7F1FF606852
:101B50002168A56A022384F836300128CB6802D0B8
:101B6000B5F5000F01D123F01E0362691D4F4FF63A
:101B7000FF76B24218BF23F46043A66818BF23F073
:101B8000C0031F4040EA05033343266A3343666AB5
:101B900033433B43E0B9E069266930430343B5F57D
:101BA000000F17D04FF6FF70824204D0A0690243A5
:101BB000E069024313430C4ACB609142E36A04BFDD
:101BC000226B13430B62012384F836300020F8BDEA
:101BD0000128E4D1D4E9030528430343E2E70120C7
:101BE000F5E700BFFEF119FF007C0040022238B586
:101BF00080F83620D0E90052012A04460B4607D06F
:101C0000826AB2F5000F02BFEA6822F46062EA60FD
:101C10002A69102142F001022A6120466960AB6105
:101C2000FFF76EFF032807D02B6943F004032B61F5
:101C3000012384F83630002038BD0000024A1368C2
:101C400043F4807313607047007000400D4B10B573
:101C50005B690C4628B99A0507D500F027F820B132
:101C600010BD9B0501D400F019F8074A1369012C37
:101C700023F00403136101D130BFF1E740BF20BF5F
:101C800020BFEDE70070004000ED00E0024B186857
:101C900000F4C060704700BF00700040024A136843
:101CA00043F4804313607047007000400C4A13688F
:101CB00023F4804313600B4B1B6832214B430A49CA
:101CC000B3FBF1F301335169890500D533B9536989
:101CD00013F4007F14BF032000207047013BF2E79C
:101CE000007000400800002040420F000B4A1368BB
:101CF00023F0070343F002031360094B1A6901281C
:101D000042F004021A6105D130BF1A6922F00402C0
:101D10001A61704740BF20BF20BFF6E70070004047
:101D200000ED00E037B51E4DAB6DDA00044618D566
:101D3000FFF7ACFFB0F5007F23D1802C29D9A02C70
:101D40008CBF0224012417490A6822F007022243AB
:101D50000A60086800F00700001B18BF012003B0EC
:101D600030BDAB6D43F08053AB65AB6D03F080537A
:101D70000193019BFFF78AFFAB6D23F08053AB65A6
:101D8000D8E7802C07D808D0A4F170035C425C41EE
:101D9000D9E70024D7E70324D5E70224D3E700BF1F
:101DA0000010024000200240204B9A68D96812F0CF
:101DB0000C0205D00C2A2CD101F0030101292FD1EE
:101DC00019681B48090755BFD3F894101968C1F367
:101DD0000321C1F3031150F8210032B3DA6802F095
:101DE0000302022A1ED01349032A08BF0846D968F5
:101DF000DA68C2F306224243D868C0F34160C1F3F7
:101E00000211013001314000B2FBF1F2B2FBF0F0FF
:101E10007047042A08D0082A064818BF00207047D7
:101E20000020DBE70448E2E7034870470010024067
:101E300044A1000800127A000024F4002DE9F743C1
:101E40000546002860D0954C0368A668E768DB0665
:101E500006F00C0607F0030776D51EB10C2E55D1FF
:101E6000012F53D12368980702D5AB69002B4BD0C3
:101E70002368286A190756BFD4F8943023681B09D1
:101E800003F0F003984229D9FFF74CFF00283BD11B
:101E9000236843F00803236023682A6A23F0F003D1
:101EA000134323606368EA6923F47F4343EA022310
:101EB0006360FFF779FFA368794AC3F30313D35C28
:101EC00003F01F03D840774B1860774B1868FEF774
:101ED000E7FC002838D003B0BDE8F083236843F066
:101EE00008032360236823F0F0030343236063683F
:101EF000EA6923F47F4343EA02236360002ED8D1CA
:101F0000FFF710FF0028D4D00120E4E7AB69002BD5
:101F10003AD0236843F001032360FEF7C7FC8046F4
:101F200023689A0728D5236843F0080323602368B1
:101F30002A6A23F0F003134323606368EA6923F4F9
:101F40007F4343EA022363602B68D8072DD42B68B4
:101F500099076BD42B68180700F1A8802B685907E4
:101F600000F1CE802B68980600F13781AB6A002B18
:101F700040F05D810020AEE7FEF798FCA0EB080082
:101F80000228CDD90320A6E7236823F001032360AC
:101F9000FEF78CFC804623689B07D5D5FEF786FCB0
:101FA000A0EB08000228F6D9ECE7082E03D00C2E8F
:101FB00008D1032F06D123689A03C8D56B68002B7C
:101FC000C5D1A1E76B68B3F5803F10D1236843F416
:101FD00080332360FEF76AFC804623689B03B6D4F7
:101FE000FEF764FCA0EB08006428F6D9CAE7B3F555
:101FF000A02F04D1236843F480232360E6E72268FE
:1020000022F480322260226822F480222260002B97
:10201000E0D1FEF74BFC80462368980397D5FEF786
:1020200045FCA0EB08006428F6D9ABE7042E03D0EA
:102030000C2E10D1022F0ED12368590503D5EB6861
:10204000002B3FF461AF63682A6923F0F85343EA39
:10205000026363607EE7EB687BB1236843F48073BF
:102060002360FEF723FC074623685A05EBD4FEF7EE
:102070001DFCC01B0228F7D984E7236823F4807372
:102080002360FEF713FC074623685B057FF562AF0C
:10209000FEF70CFCC01B0228F6D973E700100240C3
:1020A0007CA1000808000020040000206B699BB19F
:1020B000D4F8943043F00103C4F89430FEF7F6FBF3
:1020C0000746D4F894309A073FF548AFFEF7EEFB89
:1020D000C01B0228F5D955E7D4F8943023F001034A
:1020E000C4F89430FEF7E2FB0746D4F894309B071F
:1020F0007FF534AFFEF7DAFBC01B0228F5D941E7C4
:10210000A36DDF0029D4A36D43F08053A365A36DB5
:1021100003F080530193019B4FF001089A4F3B68F5
:10212000D8051DD5AB68012B2BD1D4F8903043F0E6
:102130000103C4F89030FEF7B9FB41F28839074635
:10214000D4F890309A0742D5B8F1000F3FF40AAFA7
:10215000A36D23F08053A36504E74FF00008DDE78B
:102160003B6843F480733B60FEF7A0FB81463B680D
:10217000D905D7D4FEF79AFBA0EB09000228F6D9BF
:1021800000E7052B06D1D4F8903043F00403C4F8DF
:102190009030CAE7D4F8902022F00102C4F89020D1
:1021A000D4F8902022F00402C4F89020002BC2D171
:1021B000FEF77CFB41F288390746D4F890309B0744
:1021C000C2D5FEF773FBC01B4845F6D9DAE6FEF729
:1021D0006DFBC01B4845B3D9D4E66B6A9BB1D4F8FC
:1021E000983043F00103C4F89830FEF75FFB0746D0
:1021F000D4F8983099073FF5B9AEFEF757FBC01BEE
:102200000228F5D9BEE6D4F8983023F00103C4F8CB
:102210009830FEF74BFB0746D4F898309A077FF5C5
:10222000A5AEFEF743FBC01B0228F5D9AAE6022B98
:1022300040F08880E368EA6A03F00301914222D10A
:10224000296B03F070020139B2EB011F1BD1696BDE
:1022500003F4FE42B2EB012F15D1A96B03F07842D3
:10226000B2EBC16F0FD1EA6B520803F4C001013A1F
:10227000B1EB425F07D12A6C520803F0C063013A08
:10228000B3EB426F45D00C2E3FF43EAE23685B01AA
:102290003FF53AAE236823F080732360FEF706FB18
:1022A000064623689F012ED4E268384B1340EA6A41
:1022B00013436A6B43EA0223AA6B43EAC2632A6BA5
:1022C000013A43EA0213EA6B5208013A43EA4253E5
:1022D0002A6C5208013A43EA4263E360236843F000
:1022E00080732360E36843F08073E360FEF7DEFAF7
:1022F000054623689E013FF53DAEFEF7D7FA401B29
:102300000228F6D93EE6FEF7D1FA801B0228C8D98A
:1023100038E6236898013FF52DAE236843F08073BB
:102320002360E36843F08073E360FEF7BFFA05467D
:10233000236899013FF51EAEFEF7B8FA401B02284C
:10234000F6D91FE60C2E3FF4DFAD236823F080732F
:10235000236023681A015EBFE36823F00303E36090
:10236000E36823F0887323F48033E360FEF79EFA7A
:10237000054623689B017FF5FDADFEF797FA401BEC
:102380000228F6D9FEE500BF007000408C809D0158
:102390002DE9F0410D46044610B90120BDE8F08159
:1023A000404A136803F007038B422AD32368D907F6
:1023B00032D421688A075BD43A4A136803F00703D2
:1023C000AB425DD811F0040F374D64D10B0706D531
:1023D000AB68226923F4605343EAC203AB60FFF7A2
:1023E000E3FCAB68314AC3F30313BDE8F041D35CAF
:1023F00003F01F03D8402E4B18602E4B1868FEF7D1
:102400004FBA136823F007030B431360136803F0FC
:1024100007038B42C1D1C9E76268234E032A3368A0
:102420001AD113F0007FB8D0B36823F0030313432D
:10243000B360FEF73BFA41F288380746B36862683A
:1024400003F00C03B3EB820FB3D0FEF72FFAC01BDF
:102450004045F3D90320A1E7022A02D113F4003F3B
:10246000E1E712B913F0020FDDE713F4806FDAE74A
:102470000D4AA068936823F0F003034393609BE741
:10248000136823F007032B431360136803F007035B
:10249000AB4282D196E7AB68E26823F4E063134372
:1024A000AB6093E700200240001002407CA10008CE
:1024B0000800002004000020054B064A9B68C3F377
:1024C0000223D35C044A106803F01F03D84070470E
:1024D0000010024074A1000808000020054B064AC5
:1024E0009B68C3F3C223D35C044A106803F01F0344
:1024F000D84070470010024074A100080800002076
:102500003F2303602A4B1A68510356BF1A684FF4E1
:10251000A02202F4803242601A6802F00102826155
:102520005A68C2F30722C2611A6802F0F00202621E
:102530001A6802F48072C2605A68C2F304620261CF
:10254000D3F89020520756BFD3F89020052202F00E
:1025500001028260D3F8942002F001024261D3F8B4
:10256000982002F0010242621A6812F0807F0CBFCC
:10257000012202228262DA6802F00302C262DA6891
:10258000C2F3021201320263DA68C2F30622426326
:10259000DA68C2F3415201325200C263DA68C2F310
:1025A0004162013252000264DB68DB0E83637047D4
:1025B000001002400F2303600B4B9A6802F00302E5
:1025C00042609A6802F0F00282609A6802F4E06267
:1025D000C2609B68DB0803F4E0630361034B1B6884
:1025E00003F007030B607047001002400020024018
:1025F000F8B5414CE3689B0705460E46006828D0B5
:10260000E36803F0030383423AD1002B38D0E36838
:102610006A68C3F302130133934231D1236823F074
:1026200080632360FEF742F9074623681A0130D41D
:10263000AA681202A6B3012E23694BD1296923F49B
:10264000C003490823F4FE430139134343EA4153CD
:102650002FE0022810D0032814D0012810D12368BD
:102660009F071CD5E3686A6823F07303013A0343AC
:1026700043EA0213E360D1E7236813F4806FF1D1DA
:1026800001200CE023689903ECD4236813F4802F15
:10269000F5E7FEF70BF9C01B0228C6D90320F8BDE9
:1026A0002169EB6842EAC36321F0784222F4FE42DA
:1026B00013432361236843F080632360FEF7F6F839
:1026C000064623681B0110D52369AA6913432361B9
:1026D0000020E4E7696923F0C063490823F4FE435E
:1026E0000139134343EA4163E3E7FEF7DFF8801B58
:1026F0000228E6D9D2E700BF0010024003682DE9A6
:10270000F7431E05044647D5C16BB1F5000F35D020
:10271000B1F5400F37D0002940D0012623689D0332
:1027200051D5964DAB6DD8003FD4AB6D43F080537F
:10273000AB65AB6D03F080530193019B0127DFF87C
:102740004082D8F8003043F48073C8F80030FEF7B8
:10275000ADF88146D8F80030D90528D576BBD5F834
:10276000903013F4407340F0C280D5F89030226D61
:1027700023F440731343C5F890301FE07F4AD368B9
:1027800043F48033D3607D4AE16BD2F8883023F480
:1027900040030B43C2F888300026BFE70430FFF740
:1027A00027FF06460028B9D1EDE70027C7E7FEF767
:1027B0007DF8A0EB09000228CCD903261FB1AB6D30
:1027C00023F08053AB652368DF0708D56B49206A87
:1027D000D1F8882022F003020243C1F888209D0727
:1027E00008D56649606AD1F8882022F00C020243BD
:1027F000C1F88820980608D56049A06AD1F88820D9
:1028000022F440620243C1F88820990508D55B494B
:10281000606BD1F8882022F440220243C1F888205E
:102820005A0508D55549A06BD1F8882022F44012EA
:102830000243C1F888205F0608D55049E06AD1F804
:10284000882022F440520243C1F88820DD0508D5D3
:102850004A49206BD1F8882022F440320243C1F863
:10286000882098040FD5454A216CD2F8883023F08F
:1028700040630B43B1F1006FC2F8883061D1D36877
:1028800043F48013D3603746236859030FD53B4A7E
:10289000616CD2F8883023F040630B43B1F1006FD4
:1028A000C2F8883058D1D36843F48013D3603D46D2
:1028B00023685A040BD53149A26CD1F8883023F033
:1028C00040531343B2F1805FC1F888304FD028469F
:1028D00023681B0408D5294AE16CD2F8883023F01C
:1028E00080430B43C2F8883003B0BDE8F083226D0B
:1028F00093423FF43AAFD5F89020D5F8903043F4A6
:102900008033C5F89030D5F8903022F4407123F42C
:102910008033D207C5F89030C5F890107FF525AF09
:10292000FDF7C4FF41F288398046D5F890309B0707
:102930003FF51BAFFDF7BAFFA0EB08004845F4D9FF
:102940003BE7B1F1806F9ED10121201DFFF750FEC2
:102950000746002897D097E7B1F1806FA7D10121F2
:10296000201DFFF745FE05460028A0D0A0E7022164
:10297000201DFFF73DFE0028A9D0A9E70010024066
:1029800000700040024A136843F00403136070476C
:102990000010024070470000F0B503685D689A6857
:1029A000560685B004464FEA9211C2F3801708D448
:1029B000D60706D56E0604D5C36C05B0BDE8F04059
:1029C0001847960704D5280602D5236D2046F4E75C
:1029D00041EA521102F4807001F0010101434FEA13
:1029E000521657D0AA0655D57FB194F85D20032A18
:1029F0004FF0000148D0226E42F00402226600919E
:102A0000DA6800929A680092009AF1070CD5226E5B
:102A100042F001022266002202929A6802921A682B
:102A200022F040021A60029A40B1226E42F008027F
:102A30002266002203929A680392039A226E4AB396
:102A40005A6822F0E0025A60012284F85D20AA0749
:102A500022D05A68A06D22F003025A6040B1104B98
:102A60008363FEF7DFFF18B1236E43F04003236654
:102A7000606D78B10A4B8363FEF7D4FF50B1236ECB
:102A800043F04003236605E00191DA6801929B68F8
:102A90000193019B05B0F0BD2046FFF77BFFF9E7EE
:102AA000A52A000808B5806A0023A0F84630C3872D
:102AB000FFF770FF08BD7047184A036890420BD0BB
:102AC000B0F1804F08D002F5A052904209D1CA68F7
:102AD00023F44073134307E04A6823F07003134361
:102AE000F5E70F4A9042F2D04A6923F0800313437E
:102AF00003608B68C3620B688362084B984207D0FF
:102B000003F5A053984203D003F58063984201D1A6
:102B10000B69036301234361704700BF002C014030
:102B20000044014010B5044650B390F83D3003F026
:102B3000FF021BB980F83C20FFF7BDFF022320688D
:102B400084F83D30211DFFF7B7FF012384F848309A
:102B5000002084F83E3084F83F3084F8403084F818
:102B6000413084F8423084F8433084F8443084F8AB
:102B7000453084F8463084F8473084F83D3010BD45
:102B80000120FCE7036A10B501F01F0101248C400D
:102B900023EA04030362036A8A401A43026210BDF7
:102BA000082908B518D005D859B1042911D090F8D2
:102BB000433008E00C2912D01029F8D190F84230A7
:102BC00001E090F83E30013B18BF012353B10120D2
:102BD0003EE090F83F30F6E790F84030F3E790F8A9
:102BE0004130F0E708294FF0020335D006D861B133
:102BF00004292ED0022380F8433008E00C292ED07F
:102C00001029F7D180F8423001E080F83E300068AA
:102C10000122FFF7B7FF174A904206D0164B9842A1
:102C200003D003F58063984220D1436C904243F473
:102C30000043436416D18268104B1340062B06D024
:102C4000B3F5803F03D0036843F001030360002025
:102C500008BD80F83F30DAE780F84030D7E780F8E9
:102C60004130D4E7044B9842E5D0ECE7B0F1804F17
:102C7000FAE700BF002C01400040014007000100BE
:102C80007047000038B50446C0692169A26823680E
:102C90000A4361691D680A435F49024329400A43A8
:102CA0001A605A68E16822F440520A435A605B4A4B
:102CB000A16993421CBF226A11439A6822F43062D0
:102CC0000A439A60564A934214D1564BD3F888303F
:102CD00003F00303022B00F09680032B00F08D809D
:102CE000012B00F08480B0F5004F00F09180FFF7D9
:102CF000F5FB11E04C4A934222D14A4BD3F888307D
:102D000003F00C03082B7ED016D8002B6FD1B0F542
:102D1000004F4FD0FFF7D0FB10B3626800EB5203B7
:102D2000B3FBF2F39BB2A3F110014FF6EF729142A5
:102D300004D82268D36013E00C2B5ED0012010E091
:102D4000364A9342FAD1374BD3F8883003F44063C4
:102D5000B3F5006F12D008D86BB9FFF7ADFB70B9AF
:102D600000200023C4E9193338BDB3F5406FE5D125
:102D70004FF4004003E0FFF717F8F0E72B486268D4
:102D800002EB42038342D9D8B0EB023FD6D85108B8
:102D900000238C464FF480751946E0FB05C1604660
:102DA00005F0E4FE224BA0F540729A42C6D8236893
:102DB000D860D5E7FFF780FB0028D1D062685308C0
:102DC00003EB4003B3FBF2F39AB2A2F110004FF60B
:102DD000EF718842B2D823F00F0321689BB2C2F38F
:102DE00042021343CB60BBE7FEF7DEFF94E7B0F58A
:102DF000004FF9D1FEF7D8FFDEE7B0F5004FDDD088
:102E00004FF4004089E7B0F5004F084885D1D5E779
:102E1000FFF764FBD0E700BFF369FFEF00800040DD
:102E20000038014000100240004400400024F4003B
:102E3000FFFC0F00436ADA0710B506D50168846A03
:102E40004A6822F4003222434A609C0706D5016892
:102E5000C46A4A6822F4803222434A60590706D580
:102E60000168046B4A6822F4802222434A601A07F0
:102E700006D50168446B4A6822F4004222434A6046
:102E8000DC0606D50168846B8A6822F480522243EE
:102E90008A60990606D50168C46B8A6822F40052DC
:102EA00022438A605A060FD50168046C4A6822F4EE
:102EB00080122243B4F5801F4A6005D14A68446CF1
:102EC00022F4C00222434A601B0606D50268816CC8
:102ED000536823F400230B43536010BD2DE9F843DE
:102EE000DDF8209005460F46164698462A68D369B5
:102EF00037EA03030CBF01230023B34201D00020B3
:102F00001BE0B9F1FF3FF2D0FDF7D0FC2C68A0EB3D
:102F100008004845236802D8B9F1000F0FD123F407
:102F2000D0732360A36823F00103A3602023AB6761
:102F3000EB67002385F874300320BDE8F8835A0757
:102F4000D4D5E3691B05D1D54FF400632362236810
:102F500023F4D0732360A36823F00103A36020232C
:102F6000AB67EB67C5F88030E3E773B5044600262E
:102F7000C0F88060FDF79AFC23681B681A070546B5
:102F800016D423681B685B070AD56FF07E43009355
:102F900000222B464FF480012046FFF79FFF98B98F
:102FA00020230020A36784F87400E36720660CE008
:102FB0006FF07E430093324603464FF400112046E3
:102FC000FFF78CFF0028DCD0032002B070BD10B5E5
:102FD000044640B3836F1BB980F87430FFF750FE8E
:102FE00022682423A367136823F00103136020469B
:102FF000FFF748FE012816D0636A13B12046FFF799
:1030000019FF23685A6822F490425A609A6822F0A5
:103010002A029A601A6842F0010220461A60BDE84E
:103020001040FFF7A2BF012010BD90F87420012AC4
:103030001CBF01688A6803461FBF42F400020020DB
:103040008A6083F8740008BF0220704790F87420EB
:10305000012A1CBF01688A6803461FBF22F40002D0
:1030600000208A6083F8740008BF0220704790F83F
:103070007420012A1CBF01680A6803461FBF42F082
:10308000020200200A6083F8740008BF0220704723
:1030900090F87420012A1CBF01680A6803461FBF0C
:1030A00022F0020200200A6083F8740008BF0220A8
:1030B000704700000F4B104A9A60D3F8882042F402
:1030C0007002C3F888200D4B1A68002142F00102FB
:1030D0001A6099601A6822F0A85222F410221A602D
:1030E0004FF48052DA601A6822F480221A609961E3
:1030F000704700BF00ED00E0000000080010024033
:1031000021490B681B0754BFD1F894300B688A68BB
:1031100002F00C0254BFC3F30323C3F30313082AC2
:103120002FD01A480C2A50F823300CD01848042A03
:1031300008BF03468A681749C2F303128A5CD3406A
:10314000154A13607047C868CA6800F00300C2F3EC
:103150000212022802F101020FD003280FD0B3FBA4
:10316000F2F2CB68C868C3F306235343C0F341624D
:1031700001325200B3FBF2F3DCE7054BEFE7074BFC
:10318000EDE7064BD6E700BF0010024044A100085F
:103190000024F4007CA100080800002000127A003E
:1031A00070B50546064655F8044B54B901F0B0FD1C
:1031B000346824B9284602F033FD2C46356001F00E
:1031C000B1FDAC4204D003490348732201F03CFF37
:1031D000204670BDBE930008CD93000808B5034893
:1031E000FFF7DEFFBDE8084002F022BD34050020F5
:1031F00008B50348FFF7D4FFBDE8084002F034BD2E
:103200003405002038B5084B03600446C2660D46FD
:10321000FFF7E4FF2946201DFDF782F82046FFF75F
:10322000E7FF204638BD00BF94A1000838B5054629
:10323000064B45F8043B0446FFF7D0FF284600F054
:10324000C2FD2046FFF7D4FF204638BD94A10008F8
:1032500010B50446FFF7EAFF2046702102F0AFFCEC
:10326000204610BD036801221B690021184703682E
:1032700000221B69114618476FF01500704780F84F
:1032800034130020704780F850120020704790F8E7
:103290003403704790F850027047002070470120B7
:1032A00070476FF01C0070470A4B10B5036048333D
:1032B0000446C0F8E430D0F8380310B103685B6806
:1032C000984704F5407002F0E9FC204600F0EAFB64
:1032D000204610BDACA10008A0F1E400FFF7E4BF58
:1032E00010B50446FFF7E0FF20464FF44F7102F09F
:1032F00066FC204610BDA0F1E400FFF7F1BF10B45A
:10330000826801685410034601EB6200D20748BF8F
:103310000A595B685DF8044B48BFD3581847002032
:103320007047012070476FF01C007047D0F83803D9
:1033300008B520B100F0B9FA003818BF012008BD67
:1033400030B5002587B0CDE9005502AB0ECB044661
:1033500000F062FB84F8365307B030BD30B501236E
:1033600087B00025CDE9005302AB0ECB044600F038
:1033700053FB84F8355307B030BD10B5044601F057
:1033800037FFD4E940239A420ABF94F80841002449
:1033900084F0010401F042FF204610BD38B500F56D
:1033A00040750446284602F043FC04F5FA742046B2
:1033B000FFF7E3FF20B1284602F056FC002038BD9D
:1033C000284602F051FC012002F0FBFB284602F0E7
:1033D0002FFCECE7A0F1E400FFF7E0BF38B50546AD
:1033E000E830FFF7CAFF80F001042846E4B2FFF797
:1033F0009DFF18B144F40054204638BD95F8FC32C6
:10340000002BF9D144F01004F6E7A0F1E400FFF737
:10341000E5BF000038B504460D4601F0E9FED4F8DA
:1034200000312A78E2540133B3F5807F05D90D4984
:103430000D484FF4AF7201F007FE94F8082108BF61
:103440000023C4F800312AB1C4F80431BDE8384083
:1034500001F0E4BED4F804219A4204BF012384F8A9
:103460000831F3E7359400084694000870B5044627
:103470000E4601F0BDFED4E940239A4202D194F8F1
:103480000851B5B1E35C3370D4F804310133B3F5BE
:10349000807F05D909490A484FF4AF7201F0D4FD85
:1034A0004FF0000208BF1346C4F8043184F8082125
:1034B000012501F0B3FE284670BD00BF3594000819
:1034C00046940008C36810B52BB9044904484FF46A
:1034D000FD7201F0B9FDBDE8104018479D94000849
:1034E000A894000884B070B505AC064684E80E00C8
:1034F00001F07EFE94E80F0006F5497585E80F009F
:10350000D6F8303343B147F6FF713046FFF766FF18
:1035100010B12846FFF7D6FFBDE8704004B001F0B7
:103520007DBEA0F1E400FFF7DDBF08B5D0F8303371
:103530001BB100F54970FFF7C5FF08BD73B500F179
:10354000E80504462846FFF718FF064694F8F031D0
:1035500073B9204600F03EFA50B1204600F0D4FA8C
:103560000DF107018DF807002846FFF753FFEDE73F
:1035700094F836332BB194F8F03113B12046FFF7AD
:10358000DFFE4EB12846FFF7F8FE28B9204602B00C
:10359000BDE87040FFF7C9BF02B070BD10B504466A
:1035A00086B001F025FE94F8BC30BBB194F83633F8
:1035B000A3B92046FFF7C2FF94F8F03173B90A4A65
:1035C0000193CDE90323094B0093029402AB0ECB88
:1035D000204600F021FA012384F8363306B0BDE816
:1035E000104001F01BBE00BF3D350008FF3200084F
:1035F00038B5044600F0AAF90F4B23600025483384
:10360000C4F8E430C4E97A55C4E9BD5584F8F051F2
:1036100084F8FC5204F5407002F002FB01232046BE
:10362000C4F83053A4F8343384F83653C4F838530C
:10363000FFF7B4FF204638BDACA100082DE9F047E4
:103640000646894615469AB300F54077384602F09B
:10365000EFFA06F1E8084046FFF78FFE0446A0B9EE
:10366000404609EB040AFFF788FE30B95146404650
:103670000134FFF7FBFEA542F2D13046FFF78EFF83
:10368000384602F0F1FA204607E096F8343338461F
:103690002BB902F0E9FA6FF00A00BDE8F08702F0FA
:1036A000E3FA012002F08DFA384602F0C1FAD2E7BF
:1036B0001046F2E7A0F1E400FFF7C0BF70B500F5D7
:1036C000407604460D46304602F0B2FA29462046BE
:1036D00000F02DFA2046FFF761FF304602F0C4FAF1
:1036E000002070BDA0F1E400FFF7E8BF73B5044609
:1036F00090F8FC5200F5FA76204600F07CF958B1BB
:103700000DF107013046FFF7B1FE28B19DF8071013
:10371000204600F0FCF9EFE794F835333BB104F5AF
:10372000FA70FFF72AFE10B12046FFF717FE65B1C9
:1037300094F8FC324BB92046FFF7F8FD28B9204633
:1037400002B0BDE87040FFF7F0BE02B070BDF8B542
:1037500005460C46164600F5FA773846FFF70DFE8B
:1037600020B1A719BC4205D13046F8BD2846FFF765
:10377000BDFFF2E714F8011B284600F0C8F9F1E795
:1037800030B5044687B001F033FD94F8BD30CBB1BD
:1037900094F83533B3B92046FFF7A8FF04F5FA7063
:1037A000FFF7EBFD70B90A4B0294CDE90330012518
:1037B000084B0093019502AB0ECB204600F02CF98C
:1037C00084F8355307B0BDE8304001F027BD00BF95
:1037D000ED360008FF3200082DE9F04706460F4697
:1037E0001546002A43D001F000FD044630B12A46B8
:1037F00039463046BDE8F047FFF7A9BF06F54078E7
:10380000404602F015FA06F5FA7996F8FC3273B9DB
:10381000A7EB040AA5420AEB040719D996F8FC3273
:10382000B3B939464846FFF7F5FD0134F2E796F89B
:10383000343393B1404602F017FA012002F0C1F987
:10384000404602F0F5F996F8FC32002BF2D1DFE7A2
:103850003046FFF795FFA542D7D8404602F004FA5C
:10386000002C14BF20466FF00A00BDE8F087104618
:10387000FBE7A0F1E400FFF7AFBF70B500F54076BD
:1038800004460D46304602F0D3F92946204600F0A2
:1038900099F92046FFF774FF304602F0E5F9002061
:1038A00070BDA0F1E400FFF7E8BF836840681B68C3
:1038B0001840003818BF012070477047426810B4A4
:1038C0008AB1D0E9033404F0010123B959B1611080
:1038D0005158CB5801E00029F9D1816802EB64000E
:1038E0005DF8044B18475DF8044B704770B504460B
:1038F00000F14C05D0F8C410284600F01FFDD4F8A4
:10390000D820A2B1D4F8C8301BB9D4F8CC30D8072D
:103910000DD5D4F8E010D4F8DC304E1004EB610083
:10392000C90744BFA159CB5894F8D0109847D4F890
:10393000B8102846FDF7BCFB224628460249BDE8E0
:103940007040FCF7E5BD00BF1D3B0008F8B51E4BFD
:1039500003601E4B436000251D4B856017464C22BB
:1039600004460E46C0E90555C0E90755C360858485
:1039700045634564A0F8485029460061104404F0AE
:103980005BFCC4E92D57C4F8A45040F20113A4F81D
:10399000BC30B388A4F8BE30B389A4F8C0304FF669
:1039A000FF732046C4E93165C4E93655C4F8CC50EC
:1039B00084F8D050A4F8D230A4F8D430C4F8E05041
:1039C000FFF794FF2046F8BD44A20008ED38000838
:1039D000BD38000838B50546044655F84C3B1B6811
:1039E00098472846FDF7FEFA236805465B6820469F
:1039F0009847284638BD38B50546044655F84C3B2F
:103A00001B6898472846FDF7FDFA236805465B6862
:103A100020469847284638BD84B02DE9F04709AEC6
:103A200086E80E0003689DF834701B6805469847C9
:103A300095F8BC303C0103B18FB195F8BD300BB1A6
:103A4000012F0CD096E80F002C44983484E80F0026
:103A50002B682846BDE8F0475B6804B0184704F1BE
:103A6000980801F0C5FBA8440C9AD8F80C3005F171
:103A70004C0982B10BB901F009FE96E80F002C4405
:103A8000983484E80F00012239464846FCF74CFD83
:103A900001F0C4FBDCE70BB101F00EFE0022C8F818
:103AA0000C20F1E770B5124B86B000260360CDE91B
:103AB000006602AD95E80E000446FFF7ADFF012356
:103AC000CDE90063204695E80E00FFF7A5FF94F8C6
:103AD000BC3013B994F8BD301BB104F14C00FDF7B4
:103AE00017FA206A08B101F0E5F8204606B070BD6B
:103AF00044A2000810B50446FFF7D4FF2046E42195
:103B000002F05DF8204610BD4C30FCF75DBD10B5ED
:103B10004C300C46FCF78EFD204610BD00EB01102A
:103B2000983008B5C3680BB1FFF7CCFC08BD03683B
:103B300070B504461B680D46984794F8BC30AB42FC
:103B400017D0E5B901F054FB2A46294604F14C0090
:103B5000FCF7EAFCD4F8A4308BBB01F05FFB84F8DF
:103B6000BC5035B994F8BD301BB904F14C00FDF7D9
:103B7000CFF9236820465B68BDE87040184794F889
:103B8000BD304BB9A2686368511004EB6200D207E4
:103B900044BF6258D358984701F02AFBD4F8A430A8
:103BA000002BDAD004F19800FFF78CFC01F06EFDD9
:103BB0000122002104F14C00FCF7B6FCCDE701F036
:103BC0007BFDCAE7036870B504461B680D4698473D
:103BD00094F8BD30AB4217D0E5B901F009FB2A4695
:103BE000012104F14C00FCF79FFCD4F8B4308BBBEE
:103BF00001F014FB84F8BD5035B994F8BC301BB902
:103C000004F14C00FDF784F9236820465B68BDE8A9
:103C10007040184794F8BC304BB9A26863685110E3
:103C200004EB6200D20744BF6258D358984701F0B2
:103C3000DFFAD4F8B430002BDAD004F1A800FFF793
:103C400041FC01F023FD0122114604F14C00FCF778
:103C50006BFCCDE701F030FDCAE7437D10B50446AB
:103C60001BB1037D0BB101F027FD204610BD37B518
:103C700004460D4601A801F025F800230022C4E9FE
:103C800000236B7D4BB1286900F038FBD5E9003289
:103C9000C01A61EB0201C4E9000101A801F018F8A3
:103CA000204603B030BD1FB5044603A801F00AF852
:103CB00021466846FFF7DBFFD4E90231009A9B18E2
:103CC000019A42EB0102C4E90232637D1BB1237DFC
:103CD0000BB101F0F1FC0023637503A800F0F8FFBD
:103CE00004B010BD30B585B004460D4603A800F001
:103CF000E9FF29466846FFF7BAFFD5E90221009B94
:103D00009B18019A03A842EB0102C4E9003200F0BB
:103D1000DFFF204605B030BD13B5044601A800F012
:103D2000D1FF206900F0EAFA00220023C4E9000173
:103D3000C4E9022301A800F0CBFF02B010BDD0B54A
:103D4000002300260027C0E90067C0E90267044697
:103D5000016102754375FFF7DFFF2046D0BD10B546
:103D6000044600F0DDFA012201462046FFF7E7FF96
:103D7000204610BD03681B681847000010B50446B4
:103D8000074B236000220023C4E9022300230846D6
:103D9000A161C4E90433034900F03EFA204610BD96
:103DA0005CA20008753D000807B5009000F108010D
:103DB000806900F06EFA03B05DF804FB00F10801C1
:103DC000806900F080BA7047EFF3108372B6054A3D
:103DD000117831B90449DB4303F001030B7001236F
:103DE000137070475C0500205D05002008B5EFF3F7
:103DF0001083DB4313F0010304D006490648362242
:103E000001F022F9054A1370054B1B7803B162B625
:103E100008BD00BFEA940008069500085C05002074
:103E20005D050020014B1878704700BF5C0500203D
:103E3000F8B50F46044615461E46FCF703FD01374C
:103E40000FD023685EB1A268136020460121FCF701
:103E50001FFD29462046BDE8F840FCF715BDE26885
:103E6000F2E7F8BD13460022FFF7E2BF0022FFF79A
:103E7000F9BF00000048704760A20008024B1B68B1
:103E80000BB10248184770470C00002060A20008E0
:103E900007B502468A4208460AD0531C08D00130B2
:103EA00005D0002304490548009301F039FB104672
:103EB00003B05DF804FB00BF2095000830010180CD
:103EC000B1F900305A1C01D118467047834201D124
:103ED000486870470C31F3E7421C13B504460AD01A
:103EE000FFF7EEFF431C06D100230449044800936A
:103EF000224601F015FB02B010BD00BF319500084D
:103F000030010180B1F900305A1C01D118467047C8
:103F1000834201D1886870470C31F3E72DE9F04105
:103F2000456895F832706FBB03685B6898472C6AE8
:103F3000844227D02B69A96895F934202862041B94
:103F40001C40A1FB0441B2B16E6A361941F1000177
:103F5000002A19DBC2F12000A2F1200326FA02F4A4
:103F600001FA00F021FA03F304431C43D14004FAA0
:103F700002F2B21A6A62D5E90A321B1941EB020158
:103F8000C5E90A31BDE8F081D5F80C8030464246DB
:103F90003B4604F0EBFD08FB106604466E62EAE760
:103FA000824206D98A420BD9884294BF0020012060
:103FB0007047884206D98A428CBF00200120704792
:103FC00001207047002070472DE9F0414668336BAF
:103FD00023F07F4828F0FF080546B8F1000F5CD1B8
:103FE000FFF79CFF7368002B59D0D3E90003D6E993
:103FF0000A1281429A4104D32B68BDE8F0415B6903
:1040000018476C68D4E90A12401A63EB020CD4E931
:104010000572E369824273EB0C031FD3E368A3FBD1
:10402000000103FB0C1194F93330A3B1A26802F133
:10403000FF3C1CEB000041F10001002B1BDBC3F136
:10404000200CA3F12002D84001FA0CFC40EA0C003D
:1040500021FA02F21043874228BF0746236A1F4411
:1040600023691F40336ABB4209D11249124840F20A
:10407000C91200F0E9FF434604F078FDEBE72B6836
:1040800038461B6998472B685B6898473A46014653
:10409000306AFFF785FF0028AED1BDE8F081736973
:1040A000306A326918442B681040BDE8F0411B6942
:1040B000184700BF87950008999500084368F7B531
:1040C00093F830200446002A76D193F83230002B42
:1040D00072D103681B6898472368DB6998470368B7
:1040E0002BB93649364800931A4601F019FA354A79
:1040F0001E461146B6FBF2F201FB12620E46002A82
:10410000F7D165682F4AB2FBF1FC0126C5F808C05B
:104110001F22013A03D306FA02F7BC45F9D185F80C
:104120003320B3FBF1F21F23EA60012101FA03F609
:10413000B24201D0013BF9D285F834304168081F02
:104140001C2805D900232049204800931A46CCE7B3
:1041500020291CBF01238B404FF007074FF00006BA
:1041600007FA00F714BF03F1FF334FF0FF33501E7F
:1041700046F1FF31E7FB0C012B616F61334604F020
:10418000F5FC2368C5E90601C5E900665B68984748
:1041900063682862002101220020C3E90A015E62EF
:1041A00020461A8683F83260FFF7B8FE204603B037
:1041B000BDE8F040FFF708BF03B0F0BDBD950008B3
:1041C0000E01048040420F00D695000805010480CE
:1041D000F3B44568069C8C60C1E900236C68002735
:1041E00034B9CC607FB9696002B0F0BCFFF7ECBEB7
:1041F000666801962668B242019E73EB0606F0D30C
:104200002746E468ECE7F960D5E90A419442994110
:10421000EAD202B0F0BC704738B505460C46FFF74D
:104220004DFF00F0E5FF6B681C60BDE8384000F012
:10423000F5BF70B5054600F0DBFFD5E90034DB685B
:10424000984794F832301BB1BDE8704000F0E6BFEB
:10425000012384F831306368A3B12846FFF75EFE7E
:104260006368D4E90A62D3E9000186428A4109D32E
:104270006A68DB68526863602368002BEBD0906843
:104280009847E8E7002384F831302846FFF79CFE82
:10429000DAE72DE9F34104460D4617461E46DDF8E0
:1042A000208000F0A5FF2046FFF738FECDF8008003
:1042B0003A46334629462046FFF78AFF02B0BDE85A
:1042C000F04100F0ABBF38B505460C4600F090FF5A
:1042D0006A685368A34209D1DB6853602846FFF738
:1042E00073FEBDE8384000F099BF1346002BF8D0AC
:1042F000DA68A242F9D1E268DA60F2E738B504463A
:10430000FFF7DCFE00F074FF2046FFF707FE63684E
:10431000D3E90A4500F082FF2046294638BD7047A0
:10432000004870478CA20008024B1B680BB1024882
:1043300018477047100000208CA20008B1F90C202B
:10434000B1F90410FCF72CBF08B5BFF35F8F1C4B0D
:10435000D3F8902012F47C4FC2F3072104D11949FD
:1043600019483B2200F070FE0022C3F8942010464A
:104370008A421FD11022C3F89C20144AC3F8A020FF
:104380001322C3F89C20124AC3F8A0201122C3F8BC
:104390009C20104AC3F8A0200F4AC3F89C200F4A63
:1043A000C3F8A0200722C3F89420BFF34F8FBFF3B8
:1043B0006F8F08BDC3F89820C3F8A0000132D7E77B
:1043C00000ED00E04C9600085B96000839F002060C
:1043D000390702133FF50B13120000803900021356
:1043E000102300F007B8202300F004B8302300F0B9
:1043F00001B840239C46F0B404AE7546E80801D3EA
:10440000EFF309860E4F0FCE0FC70FBC0FC7404604
:10441000494652465B460FC71DCE3100A60A00D35F
:1044200004316E0900D248311FC7EFF30980694695
:10443000EFF3148663C76046014900F077F800BFC8
:10444000D0050020F0B52B4E85B00024354621461E
:1044500056F8042B2848013400F0AEFE0D2CF6D19E
:10446000AB6C02936B6C01932B6C244C0093D5E9DD
:104470000E23696B224800F09FFE2168214800F05E
:104480009BFEE16AA26AA36AA06A266BE76B000C36
:10449000CDE901670090C3F307231B48D2B200F0B7
:1044A0008BFEA36A1E0603D5616B184800F084FEDC
:1044B000A36A180403D5A16B154800F07DFEEB6CD0
:1044C000190712D5134800F077FE2B6DDA070FD5C8
:1044D000114800F071FEEB6C5B074CBF0F481048B1
:1044E00005B0BDE8F04000F067BE0E4800F064FE85
:1044F0000D48EEE7D00500206896000800ED00E0CA
:1045000076960008C5960008D39600082297000802
:10451000309700083E9700084D9700087D970008E7
:10452000899700086D9700085A97000807B5044658
:104530000D461A48012100F0B6FD68BB184800F08E
:104540003BFE302C19D0402C1CD0202C1FD11548FC
:10455000154C00F031FE154800F02EFEFFF772FFFB
:10456000134800F029FE0D4B00221A700023114958
:1045700000932A46204600F0D3FF0F480F4C00F06E
:104580001BFEE8E70E480F4C00F016FEE3E70E486E
:104590000E4C00F011FEDEE70024E7E79D06002048
:1045A00095970008BE9700083E01FF80EB97000832
:1045B000F697000815980008CD9700083F01FF8086
:1045C000D69700084001FF80E19700083D01FF8079
:1045D00070B505461846136814466FF000429342C2
:1045E0000E46049905D229B103F090FC431C05D175
:1045F000206070BD15B1B34238BFE8542368013361
:104600002360F6E72DE9F04F8DB0914618229DF812
:1046100068309DF860A00293074688460DEB0200C3
:104620000021DDE9164603F007FE029B002B0CBFBC
:1046300020233023BAF1010F049325D1002E54DA40
:10464000644266EB4606D34606AB0393AAF1020327
:10465000DBB200250593059B012B49D8BAF1020F67
:1046600004F00F030CBF374A374A2409D25C44EAEE
:1046700006743609039B03F8012B039354EA0603DF
:1046800005F10105E7D10CE0AAF10403D3F1000B19
:104690004BEB030B54EA0603D6D130238DF81830C8
:1046A0000125BBF1000F48D0029B3BB11B9B00933F
:1046B0004A462D2341463846FFF78AFF199B0135AC
:1046C0009D4205DA199BAB421DDCBBF1000F0AD0FD
:1046D000029B3BB91B9B00934A462D23414638461B
:1046E000FFF776FF013D06AC22E04FF0000BD1E76B
:1046F000204631460A22002304F038FA30320446BC
:104700000E46D2B2B6E71B9B00934A46049B414635
:104710003846FFF75DFF199B013B1993D2E7013D36
:104720001B9A2B5D009241464A463846FFF750FFE0
:10473000002DF4D10DB0BDE8F08F199B9D42C1DB77
:10474000D1E700BFF7A20008E7A200082DE9F04F6B
:1047500095B01C46002383460D4613939246CAB17A
:10476000994217DB0CBF012301F1FF350D934FF088
:1047700000081AF808308BB9BBF1000F0AD00D9B66
:1047800043B9139BAB4295BF0D9A0D9B0BF80320C9
:104790000BF80530139815B0BDE8F08F252B40F0CD
:1047A000518208F101031AF80320203AD2B20D2AEF
:1047B00007D842F6090121FA02F2D20748BF08F1F0
:1047C00002031AF803202A2A1DD14FF000090133F1
:1047D0000434CDF81C901AF803102E290AEB0302BA
:1047E00040F0E68051782A292AD000260A275378FB
:1047F000303BD9B2092902F1010040F2D580CAF15B
:10480000010313441FE0302A13D101331AF80320A7
:10481000302AFAD00122079253444FF0000919467A
:1048200011F8012B303AD0B2092804D9A3EB0A03BE
:10483000D1E70022EFE70A2303FB09290B46EEE745
:1048400054F8046B02331AF80320682A40F0B3804E
:104850000AEB03025278682A00F0BD801C22B0499E
:104860008A5C02F00F01CB180B931AF80370692FC2
:1048700000F2EE80572F00F2BF80A7F14603012B14
:1048800000F2EB80073424F00704B4EC027B51EC17
:10489000170B8DED0E7B04F081F90A9106900991BA
:1048A00004F0AEF802460B46DDE90E0103F01EFFF0
:1048B0000B460246CDE910236FF000439E4200F004
:1048C0002D81002E00F05381012200230C920893C9
:1048D0000A229E4200F328810C98089904F090F86F
:1048E000DDE9102303F0D4FD0022074688460023AB
:1048F000DDE90E0104F012F91090002800F01E818D
:1049000043463A468749002003F0F0FE04F046F99A
:104910000C9B9842089B88469941074608DB069BFA
:10492000013B06930A9B63F1000309930027B846F5
:104930009DED0E7B731C8DED107BA9EB030929EA1D
:10494000E979069B099A134340F01F81DDE91001C4
:104950000022002304F0E2F8002800F016811E9BDC
:104960000593079BCDE903930423029300220023C0
:10497000CDE9002313AA29465846FFF743FE002E2F
:1049800000F02F811E9B009313AA2E232946584620
:10499000FFF71EFE1E9B05930123CDE90363002351
:1049A000CDE9007802939DE007FB063602461EE73C
:1049B0006FF0004647E76C2A06D10AEB03025278F3
:1049C0006C2A0AD020224AE74C3AD2B22E2A7FF62D
:1049D00046AF002245E7722243E7822241E7082BD7
:1049E0003BD8DFE813F013013A003A0002013A0025
:1049F0006B003A003A006B00A7F15803112B2CD83A
:104A000001A151F823F000BFBD4A00085B4A00082D
:104A10005B4A00085B4A00085B4A00085B4A0008E2
:104A20005B4A00085B4A00085B4A00085B4A0008D2
:104A30005B4A0008D14B0008774A00085B4A00082F
:104A400085480008854800085B4A0008774A000846
:104A5000A7F17003D9B20829C1D91E9B009313AAEC
:104A6000252329465846FFF7B3FD0B9B252F18BF7A
:104A700043460B93B5E0822A10D1073424F0070394
:104A80001C465B6854F8082B1E9905910799009203
:104A9000CDE9039101210291019323E0112A54F8F9
:104AA000043B07D0722A15BF1A465AB2D31743F3F4
:104AB000C013E9E71AB243F3C033E5E7822A17D1FE
:104AC000073424F007021446526854F8083B1E9934
:104AD00005910799752FCDE9039119D10021CDE9F1
:104AE0000032029113AA29465846FFF78BFD78E061
:104AF000512A54F8043B09D0722A03D0112A03D05A
:104B00000022E4E7DBB2FBE79BB2F9E7DA17DEE766
:104B1000582F01D10321E2E70221E0E70626D3E680
:104B2000B8A200080000E03F08990C985143A0FB90
:104B3000020739440C9008910133CAE6464B002223
:104B40003846414603F0D4FD04F028F80C9B984207
:104B5000089B884699410746FFF6EAAE069B109FE0
:104B6000013306930A9B43F100030993DFE63A4BB6
:104B7000002203F0F1FFA0B1069B013306930A9BCC
:104B800043F1000309933746B0461E9B0593079BEC
:104B9000CDE9039301230293069B0093099B0193A4
:104BA000E8E6DDE910012D4B002203F0B7FF60B10C
:104BB000069B5F1E0A9B63F1000857EA08033FF457
:104BC000CEAE0697CDF82480DDE73746B046B8E68E
:104BD0001E9A14F8043B0092294613AA5846FFF780
:104BE000F7FC0B9B03F10108C3E554F8047B3E443A
:104BF0003B78002BF5D0B742F3D01E9A009229469D
:104C000013AA5846FFF7E4FC0137F1E71E9B54F85E
:104C1000046B009313AA302329465846FFF7D8FCAB
:104C20001E9B009313AA782329465846FFF7D0FC11
:104C30001E9B05930023CDE90333032302930096C3
:104C4000F31729E71E9A0092294613AA5846FFF740
:104C5000BFFCCDF82C80C4E70000E03F0000E0BFBF
:104C60000FB41FB50849096806AB896853F8042BCF
:104C7000009100206FF000410393FFF767FD05B03E
:104C80005DF804EB04B07047CC01002013B500249C
:104C90000094FFF75BFD02B010BD07B5134600900E
:104CA0000A4600206FF00041FFF750FD03B05DF8A9
:104CB00004FB0000024B1B6803B11847704700BF9C
:104CC0002406002010B5044600F092FA204610BDDC
:104CD00010B5044600F0A2FA204610BD036870B576
:104CE0001B690122002104469847051E0DDB23683D
:104CF00002221B6900212046984723680646294660
:104D00001B690022204698473546284670BD0000A2
:104D1000034B186818B14FF0FF3101F061BF7047C5
:104D200094120020024B186808B101F071BF70475F
:104D30009412002008B5024902488E2200F084F93E
:104D4000609800086D98000810B504460846FFF703
:104D5000D5FAC4E90001204610BD000010B5044694
:104D6000FFF70CF820460A4B40F8203BA169FFF7FB
:104D7000EBFFD4E90823C4E90A2300220023C4E995
:104D80000C230023C4E90E3384F84030204610BDC4
:104D900010A300084FF0FF30704738B590F83F502F
:104DA00004460DB1FFF7C6FFFFF708F894F840304E
:104DB000A5872BB184F84050BDE8384000F07CBC9A
:104DC00038BD000008B50121383000F063F918B192
:104DD000024B4FF080625A6008BD00BF00ED00E05A
:104DE00010B50446FEF7EAFF002384F83F30024B7B
:104DF0004FF000725A6010BD00ED00E010B504469F
:104E000001F1300000F058F9C4E90001204610BD5E
:104E1000D0E90C32013342F10002C0E90C32D0E992
:104E20000A3213F57A7342F10002C0E90A32704780
:104E3000D0E90A2312F57A7243F10003FEF7B4BFFA
:104E400008B5012380F83F30836B1BB1034B4FF053
:104E500080625A60FFF7ECFF08BD00BF00ED00E084
:104E600090F83C3010B504464BB1002380F83C303C
:104E700090F83E3013B9012380F83D3010BD90F812
:104E80003F30002BFAD0836B01338363044B4FF028
:104E900080625A60FFF7BCFF2046FFF7C9FFEDE7CD
:104EA00000ED00E037B50D46044689696846FFF716
:104EB0004BFFD5E90A3200980199C01A61EB020153
:104EC000B0F57A7F71F1000306D200220023C4E915
:104ED0000023204603B030BDB0F5FA6F71F1000336
:104EE00001D20122F2E700294FF47A724FF0000359
:104EF000D8BF002103F03AFEC4E90001E9E7000051
:104F000091F83F30F7B505460C4613B991F83C606F
:104F100026B112491248E52200F096F86846FFF7DC
:104F2000C1FFDDE900304FF47A71A3FB017201FB90
:104F30000022A663D4E90A16C91942EB0602C4E9A5
:104F40000A12D4E90C125B1842EB00022846C4E9AD
:104F50000C32C5E9003203B0F0BD00BF6098000814
:104F6000779800082DE9F3411E4690F83F3004463B
:104F70001546174623B130493048582200F064F8EE
:104F800090F83C305BB901466846FFF7B9FF009BDB
:104F9000AB42019BB34105D3012384F83D3002B0FD
:104FA000BDE8F08121466846FFF728FF4FF47A7389
:104FB000A5FB035803FB0688D4E90832ED1848EB3B
:104FC000020894F840200123DDE90001A3877AB9A3
:104FD000A269126892F820203F1A66EB010632BBE4
:104FE00084F8403000F052FB052F76F100060DD218
:104FF000002384F83E3094F8403023B9012384F82C
:10500000403000F043FB2A4643460AE094F8403023
:10501000002BEDD10123B5F57A6284F83E3068F1BA
:105020000003204602B0BDE8F041FEF7BDBE052FEB
:1050300076F10006DCD3EDE7609800086D98000873
:1050400002F05CBD02F0E6BC07B50B4600920146DB
:105050000022014800F064FA4401FF800346012267
:10506000D3E84F0FC3E8412FC0B20029F8D17047F1
:10507000D0E85F3F5B18C0E8523F002AF8D198B2F1
:105080007047D0E85F3F5B1AC0E8523F002AF8D172
:1050900098B27047034653E8000F401A43E80002F5
:1050A000002AF8D170470346D3E84F0FC3E8421FE8
:1050B000C0B2002AF8D1704738B5044600F098F81D
:1050C000D4E9004500F0AAF82046294638BD000082
:1050D00000B589B000F08CF800211C2201A803F073
:1050E000ABF8132101A8FEF7C1FE0424039B019A2B
:1050F0001A600D4800F067FD049B019A0A481A6087
:1051000000F061FD013CF1D10424039B019A1A6077
:10511000064800F058FD049B019A04481A6000F00C
:1051200052FD013CF1D1E0E7F0490200801A06008F
:1051300073B5002201460446022000F0C7FB0D268D
:1051400000F056F80022254614F8013B23B902B0BE
:10515000BDE8704000F062B80A2B09D10D2A07D0D3
:1051600001220DF1070102208DF8076000F0AEFB6F
:1051700001222946022000F0A9FB14F8012CE2E7E5
:1051800000B5A3B002460B4601A88421FFF77EFDBF
:10519000832806D9074B1A681B79CDF883208DF830
:1051A0008730002802DD01A8FFF7C2FF23B05DF8B9
:1051B00004FB00BF949800080FB407B504A951F888
:1051C000040B0191FFF7DCFF03B05DF804EB04B0C2
:1051D0007047EFF31080C04300F001007047EFF319
:1051E0000580003818BF01207047FEF71BBE000085
:1051F00008B5FEF7E9FD064A1368591C04D10549B4
:1052000005483F22FFF720FF0133136008BD00BFB0
:1052100028060020D4980008E4980008044A13687F
:1052200023B1013B13600BB9FEF7E0BD704700BF2F
:105230002806002008B50B48FFF710FF28B1FFF73C
:10524000D7FFBFF34F8F20BFFDE7FFF7C8FF08B1BF
:10525000FFF73EFFFFF7BDFF0028F9D0012000F067
:105260008BFC00BF9C0600202DE9FF41494C0E46F7
:10527000216801F0C043B3F1C04F0CBF4D428DB265
:10528000C1F307438046174643482A46FFF794FF79
:105290006FF498731D44132D0FD8DFE805F00A5200
:1052A00055585B615E640E0E0E0E0E0E0E0E0E0E47
:1052B0000E67A1683948FFF77FFF4046FFF738FFC8
:1052C00061683748FFF778FF4EB13648FFF730FF87
:1052D0003046FFF72DFF34483946FFF76DFFA168D0
:1052E0003248FFF769FF2368314A1A44012A02D97C
:1052F000304A93423ED1A268002A40D1E368002B95
:1053000045D059682C48002908BF0146E069039040
:10531000A06902906069019020690090274D28489B
:10532000002A18BF05462A462648FFF745FF216890
:105330002548FFF741FF254804B0BDE8F041FFF7DD
:105340003BBFA1682248B6E7A1682248B3E7A1683D
:105350002148B0E7A1682148ADE7A1682048AAE745
:10536000A1682048A7E7A1681F48A4E71F48FFF7E6
:1053700023FFA2E71E4A9342BDD00022BEE792F867
:105380004C20C2F3C00282F00102D2B2B6E70A4951
:10539000BCE700BF300600202A9900087B9900086E
:1053A000239A0008349A00083C9A0008409A0008A2
:1053B000C2FE007F4001FF80159900081498000884
:1053C0001F990008549A0008AD9A0008FC9A00083A
:1053D00091990008A1990008B0990008C3990008A4
:1053E000D7990008EB990008FA990008109A00086C
:1053F0003D01FF807047000070B5294B8EB010EA68
:10540000200538BF1D460C4616460021302202A852
:1054100002F012FF234B01952B44012B039402D978
:10542000214B9D4232D1E36B0293636B08931F4B78
:105430005B690493DA6B05925A6B1B6B06920793B8
:10544000FFF7D6FE1A4A13680133012B136009D106
:1054500001AD0FCD174C0FC40FCD0FC40FCD0FC42E
:105460002B68236001AC0FCC134D0FC50FCC0FC5BB
:105470000FCC0FC523682B60104B1B68A5F13000C3
:1054800053B19847FFF7CAFE0EB070BD0C4B9D425A
:10549000C9D0029601ABC9E7FFF7ACFFF2E700BF46
:1054A0000101FF80C2FE007F4001FF801801002043
:1054B0009806002064060020300600202C060020FC
:1054C0003D01FF800FB407B50D4801217546FFF778
:1054D000EAFD044688B901462A460A48FFF78CFFD0
:1054E000094822462146FFF7BFFE049805A901910D
:1054F000FFF746FE0548FFF71BFEFFF79BFE00BFC8
:105500009D0600200001FF80169B000813980008EC
:1055100000207047014B1878C0B270479D060020EC
:1055200080B506460C460A480121F04617461D463E
:10553000FFF7B9FD48B9424639463046FFF75CFFF0
:10554000029A29462046FFF78FFEFFF773FE00BF41
:105550009D06002038B5064D286840B9FEF78AFC44
:10556000044C01462046FFF7F9FB2C60204638BD6D
:10557000E8060020A006002008B5836823B9054B83
:105580001B6893F83D0008BDC06898470028F6D016
:10559000F9E700BFE8060020F7B5194F04464FF0C1
:1055A000FF356FF000462046FFF7E6FF30BBD4E939
:1055B0000023B34208BFAA4202D03868FFF7D2FCEA
:1055C00001A8FFF77FFB2046FFF7D6FF98B9D4E983
:1055D0000023B34208BFAA4207D100F091F801A806
:1055E000FFF776FBBFF36F8FDDE73B6893F83C3046
:1055F000002BF2D1F3E701A8FFF76AFB03B0F0BD7F
:10560000E806002030B587B0CDE902230A9B0C4D97
:1056100004930B9B05930446FFF79CFF02A8FFF73A
:10562000BBFF2868FFF7B9FB68462968FFF768FCED
:10563000DDE900232046C4E9002307B030BD00BFE8
:10564000E80600202DE9F041DFF83C8086B00546F1
:105650000E4604A8D8F800101746FFF7CFFBD8F87D
:105660000020DDE90443926BA41A63EBE2732A196C
:1056700043F1000302A8CDE90067FFF7C3FF0298DA
:10568000001B06B0BDE8F081E806002013B5074C0A
:1056900001212046FFF7ECFC034628B90090228840
:1056A00003490448FFF73CFF02B010BDEC060020A0
:1056B0002B9B00082301048013B5094C01212046CF
:1056C000FFF7DFFC4FF6FF73984206D100230093EB
:1056D000228804490448FFF723FF02B010BD00BF31
:1056E000EC0600204D9B000824010480034B188821
:1056F00080B2B0FA80F04009704700BFEC0600208D
:1057000008B5FFF775FDFFF7F1FF28B1FBF788FE3D
:10571000BDE80840FFF782BDFBF76EFEF8E700200A
:1057200070470020704708B5012000F025FA0000FE
:105730000B4910B50B680B4C9C4200EB030203D3E2
:1057400094423CBF084BC2180848824289BF084BAC
:105750000A600C221A608CBF4FF0FF30184610BD53
:1057600014000020004000105025002000C0002040
:1057700044250020012070470120704708B501F042
:1057800053FF08BD08B501F057FF08BD10B504462A
:10579000037803F00303012B08D0FFF7B9FA23784D
:1057A00003F00302012A03D1FFF7BCFA002010BD69
:1057B0002AB10549054840F2D362FFF745FC43F0A2
:1057C000020323700120F2E7A69B0008B89B0008A3
:1057D00008B5037803F00302022A05D007490848F8
:1057E00040F2DC62FFF730FC23F0030343F00103D7
:1057F0000370BDE80840FFF795BA00BFA69B0008FC
:10580000D69B00083F2870B504462CDC174E56F88E
:1058100020305A1C25D1022823DCFFF782FF0346E3
:10582000E8B92046FFF77BFF0346C0B9104D2B684F
:10583000BFF35B8FDB0711D42846FFF7A7FF68B1E2
:105840000C490D484FF4E132FDF7D2FE0B4A0C49EA
:105850000948FFF78FFF2846FFF7BAFF094B46F8C4
:105860002430184670BD0023FBE700BF180000205D
:10587000F006002014A30008F40600200000002019
:10588000A9320008D807002038B5041E06DA02F055
:1058900031FD092303604FF0FF3038BDFFF7B2FF41
:1058A000084B002543F824500028F0D003685B69BA
:1058B0009847041E04DA02F01DFD64420460EAE722
:1058C0002846EAE718000020FFF7DEBF38B50C468F
:1058D0001546FFF797FF38B902F00CFD0923036066
:1058E0004FF0FF34204638BD03682146DB682A4666
:1058F0009847041EF6DA02F0FDFC64420460EFE70C
:1059000038B50C461546FFF77DFF38B902F0F2FCBA
:10591000092303604FF0FF34204638BD0368214659
:105920009B682A469847041EF6DA02F0E3FC6442BC
:105930000460EFE710B5FFF765FF30B902F0DAFC5D
:10594000092303600024204610BD0368DB699847E3
:10595000041EF8DA02F0CEFC64420460F2E70000B4
:105960002DE9F74F06460F469046FFF738FC0546EF
:1059700030B100232D492E4800933246FFF7D0FD69
:10598000FFF727FC0028F4D0B8F1000F09DA02F085
:10599000B1FC162303604FF0FF34204603B0BDE88E
:1059A000F08F3046FFF7C6FF044640B1DFF884A011
:1059B0001AF806B02C464FF00D09A84512DCA04598
:1059C000EBDDA8EB040239193046FFF77FFF431CDB
:1059D000E1D00444002CC1BF3F19164B17F8012C2D
:1059E0009A55DAE77B5D0A2B1BD1BBF10D0F18D05E
:1059F000AC420BDA39192A1B3046FFF767FF411C0E
:105A0000C9D00444A542C8DC0AF806B001220A49FC
:105A10003046FFF75BFF421CBDD00028BDD00AF81E
:105A2000069017F805B00135C7E700BF0D9C0008C8
:105A30002F010180300A0020479C0008FFF77ABF41
:105A40007FB504460D461646FFF7C9FB30B100236B
:105A50002049214800932246FFF762FDFFF7B9FB7A
:105A60000028F4D0002E07DA02F044FC162303606D
:105A70004FF0FF3004B070BD2046FFF75BFF00B36E
:105A8000164E01220DF10F012046FFF739FF431C8E
:105A9000F0D00028EED09DF80F300D2B08D1325DEC
:105AA0000A2A0AD01A460A2332552B700120E1E750
:105AB0000A2B04D1325D0D2AF3E73355E1E71A468C
:105AC000F2E732462946204604B0BDE87040FFF7B1
:105AD00017BF00BF499C00082F010180700A0020F9
